:020000044000BA
:100000006F20885913000000130000001300000047
:100010001300000013000000130000001300000094
:10002000732700FCF32700BCB3F7E70093F7170032
:1000300063940700678000006F20885D93070000CD
:10004000739007BC736004306F20887793050500B8
:1000500037A50840130101F813058523232E110647
:10006000232C8106232A91062328210723263107E2
:10007000EF50C807EF50C8069377F50F1304000040
:100080009304D0001309A000930900056F008002BB
:1000900063862703130414001307C1003307870086
:1000A000A30FF7FEEF500809EF5088039377F50F81
:1000B0006306340113850700E39C97FC9307010650
:1000C000338487001305A000230604FAEF50880646
:1000D0001305C1001306000093050000EF405827E8
:1000E0008320C107032481078324410703290107D3
:1000F0008329C106130101086780000037E3FFFF71
:10010000130101FE37A50840232E11001305052415
:1001100033016100EF50C802F32800B03727000018
:10012000930601013307D700B7E7FFFFB307F700D6
:100130002326F100138507009306000093050000B5
:1001400013060700130880008327C10003A70700D8
:10015000938747003307D70023AEE7FEE398C7FE37
:10016000832705009386160013054500B385F50027
:10017000E39C06FD732600B0330616419356F64104
:100180003723000093962601330161008320C101CB
:1001900093D62601B386C60037A5084093D6E6401D
:1001A00013054525130101026F40587437E3FFFF23
:1001B000130101FE37A50840232E110013058528E1
:1001C00033016100EF40D877732800B03727000073
:1001D000930601013307D700B7E7FFFFB307F70026
:1001E0002326F10013860700B726000093070101BC
:1001F0001307000093050000B386F6001305800086
:100200008327C10023A0E70093874700E39CD7FE24
:10021000832706001307170013064600B385F50071
:10022000E310A7FE732600B0330606419356F6414D
:100230003723000093962601330161008320C1011A
:1002400093D62601B386C60037A5084093D6E6406C
:1002500013058529130101026F40586937E3FFFF39
:10026000130101FE37A50840232E11001305452C6C
:1002700033016100EF40D86C732800B037270000CD
:10028000930601013307D700B7E7FFFFB307F70075
:100290002326F1001385071013860700930500003D
:1002A000930607008327C10003A70700938707026F
:1002B000B385E500E39AD7FE2320B6001306460077
:1002C000E312A6FE732600B0330606419356F641AC
:1002D0003723000093962601330161008320C1017A
:1002E00093D62601B386C60037A5084093D6E640CC
:1002F0001305C52D130101026F40585F130101FE64
:1003000037E3FFFF37A50840232E110013054530C2
:1003100033016100EF40D8629306010137270000E6
:100320003307D700B7E7FFFFB307F700B7160000A2
:100330002326F100B386D7009305000003A707002A
:1003400093874700B385E500E39AD7FE732500B095
:100350000326C1008327C10003A707009387470036
:10036000B385E500E39AD7FE2320B60013064600C6
:10037000E312F6FE732600B03306A6409356F6410C
:10038000372300009396C600330161008320C1012A
:1003900093D6C600B386C60037A5084093D646411B
:1003A0001305C52D130101026F40585437E3FFFFB9
:1003B000130101FE37A50840232E11001305C53196
:1003C00033016100EF40D857732800B03727000091
:1003D000930601013307D700B7E7FFFFB307F70024
:1003E0002326F100138507021386070093050000FA
:1003F000930607008327C10003A7070093874700E0
:10040000B385E500E39AD7FE2320B6001306460025
:10041000E312A6FE732600B0330606419356F6415A
:100420003723000093962601330161008320C10128
:1004300093D62601B386C60037A5084093D6E6407A
:100440001305C52D130101026F40584A37B5094005
:100450001305C58A6F00C044130101FF2326110054
:10046000EFF0DFBDB7A5084037A508409385C54527
:1004700013054546EF40984737B5094013054592A7
:10048000EF0000428320C1001305000013010101A9
:100490006780000037B509401305C59B6F004040D9
:1004A000130101FF23261100EF4098438320C10070
:1004B0001375F50F1301010167800000130101FF9F
:1004C00023248100232611001304050003450500A1
:1004D000630A050013041400EF40D84503450400E7
:1004E000E31A05FE8320C1000324810013010101EA
:1004F000678000006780000037B509401305459FFD
:100500006F00003A37A50840130101FF1305855815
:10051000232611002324810023229100232021017E
:10052000EF40184237A508401305055AEFF01FB2F7
:100530001304050037A508401305855BEFF01FB1D4
:10054000930405000B08A40037A908409306050092
:100550009307080013070800130604009305000022
:100560001305095DEF4098380B18940093051000AF
:10057000930708001307080093860400130604007D
:100580001305095DEF4098360B2894009305200071
:10059000930708001307080093860400130604005D
:1005A0001305095DEF4098340B3894009305300033
:1005B000930708001307080093860400130604003D
:1005C0001305095DEF4098320B48940093054000F5
:1005D000930708001307080093860400130604001D
:1005E0001305095DEF4098300B58940093055000B7
:1005F00093070800130708009386040013060400FD
:100600001305095DEF40982E0B6894009305600078
:1006100093070800130708009386040013060400DC
:100620001305095DEF40982C0B7894001306040025
:10063000032481008320C100938604001305095D13
:1006400083244100032901009305700093070800EB
:1006500013070800130101016F40582937A508400E
:10066000130101FE13058561232E1100232C810047
:10067000232A91002328210123263101232441012B
:10068000EF40182C37A5084013054563B709010052
:1006900037890000B7140500EF40982A13040000C2
:1006A00037AA08409389F9FF130939109384E4A10C
:1006B000334634018B06C4000B17C4008B27C400DB
:1006C0009305040013058A6633042401EF401822C1
:1006D000E31094FE8320C10103248101832441019E
:1006E000032901018329C100032A810013010102AA
:1006F00067800000130101FA37A50840232E71031B
:10070000232C810313058569370C0100B70B100BEF
:10071000232C8104232E1104232A9104232821054C
:100720002326310523244105232251052320610579
:10073000232A91032328A1032326B10313040000D5
:10074000EF401820130CFCFF232E0100938B3B235A
:100750000329C101372B17FF930D0000130B3B7FBB
:100760008B09B4010B1AB4018B2AB4019305000064
:1007700093860D001306040013050000EF00507D62
:1007800093860D001306040093050000930C0500EA
:1007900013051000EF00D07B9304050093860D0035
:1007A000130604009305000013052000EF00507AA3
:1007B000B7A70840130D0500130919001385C76B6F
:1007C0006394990163049A0CEF40981737A5084089
:1007D00013860D0093880A001388040093070A000B
:1007E00013870C0093860900930504002320A101C0
:1007F00013050570EF40980FB3778901B38D7D0124
:10080000638A0706E39E6DF50327C101B7077100F0
:10081000938757003304F40013071734B71722FFE8
:100820009387A7B4232EE100E314F4F20324810597
:100830008320C105832441058329C104032A81043F
:10084000832A4104032B0104832BC103032C81035E
:10085000832C4103032D0103832DC102930509005D
:100860000329010537A50840130505771301010683
:100870006F40D807B7A7084093050900138587750F
:10088000EF40D806E39E6DED6FF01FF8E39EAAF3EC
:100890006FF09FF637B509401305C5A26F00400001
:1008A000130101F72322910823202109232E310768
:1008B000232C4107232A5107232861072326710788
:1008C00023248107232291072320A107232611082F
:1008D00023248108232EB105130A0500930A8500FD
:1008E000B7AB084037AB0840B7B908409304A00045
:1008F0001309D00037BC084037BD0840B7BC0840DA
:1009000003250A0013840A00EF80C8591306050066
:10091000930D05009305D00313050100EF80C85423
:1009200083250A0093070105B38DB7011306010063
:1009300013854B7F23880DFAEF40487B83458A005F
:10094000638E0500032644001385498013040401C7
:10095000EF40C87983450400E39605FE83254A00ED
:100960001305CB7FEF408878EFF09FB313040500A9
:10097000E30C95FEE30A25FFEF40C87B83478A001E
:10098000638C0700938D0A00638E870083C70D0177
:10099000938D0D01E39A07FE13050C81EF40087556
:1009A0006FF01FF61305A000EF40C87883C7CD0095
:1009B0006392070283A54D001305CD81EF400873B4
:1009C00083A78D00E78007001385CC82EF4048772E
:1009D0006FF01FF38320C10803248108832441089A
:1009E000032901088329C107032A8107832A4107B4
:1009F000032B0107832BC106032C8106832C4106A0
:100A0000032D0106832DC105130101096780000034
:100A1000130101FF232481001304050037B50840AA
:100A20001305058323261100232291002320210191
:100A3000EF40C86BEF10981BEF10D8180349050062
:100A4000834415008343250083423500834F4500CE
:100A5000034F5500834E6500034E75000343850028
:100A6000834895000348A5008345B5000346C500AB
:100A70008346D5000347E5008347F500130909F8CD
:100A8000938404F8938303F8938202F8938F0FF80A
:100A9000130F0FF8938E0EF8130E0EF8130303F8CE
:100AA000938808F8130808F8938505F8130606F8E4
:100AB000938606F8130707F8938707F8A3009400B6
:100AC00023017400A30154002302F401A302E401F2
:100AD0002303D401A303C40123046400A304140169
:100AE00023050401A305B4002306C400A306D40013
:100AF0002307E400A307F4002300240103490501B0
:100B0000834415018343250183423501834F450109
:100B1000034F5501834E6501034E75010343850163
:100B2000834895010348A5018345B5010346C501E6
:100B30008346D5010347E5018347F501130909F809
:100B4000938404F8938606F8130707F8938707F849
:100B5000938303F8938202F8938F0FF8130F0FF823
:100B6000938E0EF8130E0EF8130303F8938808F80B
:100B7000130808F8938505F8130606F823082401DE
:100B8000A3089400230FE400A30FF40023097400CA
:100B9000A3095400230AF401A30AE401230BD4019E
:100BA000A30BC401230C6400A30C1401230D040146
:100BB000A30DB400230EC400A30ED4008346050287
:100BC0000347150283472502938606F8130707F8A3
:100BD000938707F82300D402A300E4022301F40260
:100BE0008320C100130504000324810083244100F5
:100BF000032901001301010167800000130101FCBA
:100C0000232E1102EF1008771305C100EFF05FE00B
:100C100037B5084013050584EF40484D8345C100B2
:100C200037B508401305C584EF40484C8345D100D3
:100C300037B508401305C585EF40484B8345E100B3
:100C400037B5084013058586EF40484A8345F100D3
:100C500037B5084013054587EF40484983450101F2
:100C600037B5084013050588EF4048488345110112
:100C700037B508401305C588EF4048478345210133
:100C800037B5084013058589EF4048468345310153
:100C900037B508401305458AEF4048458345410173
:100CA00037B508401305058BEF4048448345510193
:100CB00037B508401305058CEF4048438345610173
:100CC00037B508401305058DEF4048428345710153
:100CD00037B508401305C58DEF4048418345810174
:100CE00037B508401305858EEF4048408345910194
:100CF00037B508401305458FEF40483F8345A101B4
:100D000037B5084013050590EF40483E8345B101D3
:100D100037B508401305C590EF40483D8345C101F4
:100D200037B5084013058591EF40483C8345D10114
:100D300037B5084013058592EF40483B8345E101F4
:100D400037B5084013054593EF40483A8345F10114
:100D500037B5084013050594EF4048398345010233
:100D600037B508401305C594EF4048388345110254
:100D700037B5084013058595EF4048378345210274
:100D800037B5084013054596EF4048368345310294
:100D900037B5084013050597EF40483583454102B4
:100DA00037B508401305C597EF40483483455102D5
:100DB00037B508401305C598EF40483383456102B5
:100DC00037B5084013058599EF40483283457102D5
:100DD00037B508401305459AEF40483183458102F5
:100DE00037B508401305059BEF4048308345910215
:100DF00037B508401305C59BEF40482F8345A10236
:100E000037B508401305859CEF40482E8345B10255
:100E100037B508401305459DEF40482D8345C10275
:100E200037B508401305459EEF40482C8345D10255
:100E300037B508401305059FEF40482B8345E10275
:100E40008320C10337B508401305C59F1301010472
:100E50006F40C829B7B7094083A5C7AB37B508406D
:100E6000130101FF130505A423261100EF10082626
:100E70008320C10037B50940130545A813010101BE
:100E80006FF01FA237D50840130101FF130505FAC3
:100E900023261100EF40882537D508409305000030
:100EA0001305C5FAEF40882437D5084093050000A4
:100EB0001305C5FBEF408823F32500B08320C10054
:100EC00037D508401305C5FC130101016F40082206
:100ED00037D50840B7B709401307100013060000C4
:100EE000930510001305C5FD23A0E7CE6F40082031
:100EF00037D50840B7B70940130600009305000036
:100F00001305C5FD23A007CE6F40481EB7B70940A3
:100F100083A507CE37D50840130101FF130585FFD0
:100F200023261100EF40881C93070000739007B040
:100F30008320C1001301010167800000B7B7094099
:100F400083A507CE37D508401305C5016F40081AA1
:100F5000B7B7094083A507CE37D508401305450329
:100F60006F40C818130101FFB7470F002326110077
:100F700093870724130000009387F7FFE39C07FE85
:100F8000B7470F0093870724130000009387F7FFEC
:100F9000E39C07FEB7470F00938707241300000068
:100FA0009387F7FFE39C07FE37D5084093050000C1
:100FB0001305C504EF40881337D50840930500009A
:100FC00013058506EF40881237D5084093050000C9
:100FD00013054508EF40881137D5084093050000F8
:100FE0001305050AEF40881037D508409305000027
:100FF0001305C50BEF40880F37D508401305850D45
:10100000EF40C80E37D50840930500001305C50D05
:10101000EF40C80D8320C10037D50840930500007C
:1010200013050511130101016F40480C130101FF65
:10103000232481002322910023261100938405009C
:101040001304050063940504B79798009387F76726
:1010500063EEA702B72700009387F77063F6A7082F
:101060001305451FB33585001306803E9306000027
:10107000EF30487D1306050037D5084093860500FC
:101080001305C514EF4088066F00C00337A507009D
:10109000130505123305A400B335850037460F004C
:1010A0001306062493060000B3859500EF30887977
:1010B0001306050037D5084093860500130545142F
:1010C000EF40C80213060400032481008320C100FE
:1010D000938604008324410037D508401305C515C5
:1010E000130101016F4088001306050037D5084041
:1010F0009306000013054515EF30587F6FF09FFCF5
:101100006780000037D508401305C5166F30187E7C
:1011100037B50940130505AC6FF08FF813F6C5FF1E
:101120003306C500130700006306C50E37339ECC97
:10113000B738871B377854E6130313D5938838598B
:10114000130848B68327050013054500B3876702D7
:101150009396F70093D71701B3E7D700B387170328
:10116000B3C7E7001397D70093D73701B367F700EA
:1011700013972700B307F70033870701E314A6FC92
:10118000B3C7E50093F53500638C050493061000A2
:10119000034706006382D50283461600130520002C
:1011A000939686003307D7006388A5008346260000
:1011B000939606013307D700B7369ECC938616D593
:1011C0003307D7029316F7001357170133E7E600EA
:1011D000B736871B938636593307D702B3C7E70064
:1011E00013D70701B347F70037D7EB851307B7A627
:1011F0003387E70237B5B2C2130555E39357D700DB
:10120000B3C7E700B387A70213D507013345F5003D
:1012100067800000938705006FF0DFF6B7D70840BE
:10122000130101D893870735232E1126232C8126FD
:10123000232A9126232821272326312723244127C7
:101240002322512723206127232E712513074100D4
:101250009388472403A8070003A5470083A58700B8
:1012600003A6C70083A60701232007012322A700A6
:101270002324B7002326C7002328D70093874701DC
:1012800013074701E39817FD83A6070083A74700CC
:10129000130481002320D7002322F70093040000C9
:1012A0009309000037DB084037D90840B7DA084017
:1012B000130AF0FFB7DB0840938504001305CB2821
:1012C000EF30D8628325440113050400EFF01FE5D9
:1012D0000326C4FF930605008325440113878A2E45
:1012E0001305092B638CC6041304C401EF30186086
:1012F0008327440193841400E39047FD37D50840C9
:10130000138604009385090013054529EF30185E04
:101310008320C12703248127832441270329012710
:101320008329C126032A8126832A4126032B0126ED
:10133000832BC12513010128678000001387CB2A66
:10134000138606001305092B1304C401EF30185A45
:10135000832744019389190093841400E39E47F581
:101360006FF0DFF9130101FCB7A70940232C8102BC
:1013700003A48740B7A709402328210303A9C74036
:10138000B7A709402326310383A90741232A9102E5
:10139000232441032322510323206103232E7101BF
:1013A000232A91012328A1012326B101232E110212
:1013B000232C8101130A0000930B0002130B04007D
:1013C00037DD0840B7D40840B7DC0840B70A0080D2
:1013D000930D040013050B00EF204822130C0500A9
:1013E000EF20480C9305050013050B00EF10980F34
:1013F00093050900EF10D80FEF20482013070500D0
:1014000093060C0013860B0093050D2F1385442FB4
:10141000EF30D84D1307D038930640001306000272
:1014200093854C301385442FEF30584C9385090039
:1014300013050400EF10C86593050000130C0500A8
:10144000EF10084D130B00026356050033CC8A01E0
:10145000130BD00213050C00EF20481A930B050064
:10146000EF2048049305050013050C00EF109807C2
:1014700093050900EF10D807EF204818B7D70840A8
:101480001307050013060B009385873093860B0026
:101490001385442FEF309845938509001305040008
:1014A000EF10180593050000130C0500EF104846D7
:1014B000130B00026356050033CC8A01130BD002D4
:1014C00013050C00EF208813930B0500EF10987D97
:1014D0009305050013050C00EF10D80093050900D3
:1014E000EF101801EF208811B7D708401307050047
:1014F00013060B009385C73093860B001385442F8A
:10150000EF30D83E9385090013050400EF10887D65
:1015100093050000130C0500EF10883F130B000229
:101520006356050033CC8A01130BD00213050C005F
:10153000EF20C80C930B0500EF10D876930505003B
:1015400013050C00EF10087A93050900EF10487A94
:10155000EF20C80AB7D708401307050013060B0091
:101560009385073193860B001385442FEF3018388D
:101570009385090013050400EF10D81893050000A7
:1015800013040500EF10C838130B00026356050062
:1015900033C48A00130BD00213050400EF200806A1
:1015A000930B0500EF101870930505001305040058
:1015B000EF10487393050900EF108873EF200804BB
:1015C000B7D70840130705009385473193860B0072
:1015D00013060B001385442FEF305831B7B708407E
:1015E00013854786EF309830130A1A009307A0003E
:1015F000630CFA0213050A00EF10D86A93850D00F8
:10160000EF1008499305000013040500EF1048305F
:1016100033CB8A00930BD002E34E05DA130B0400A0
:10162000930B00026FF01FDB8320C10303248103AF
:1016300083244103032901038329C102032A810270
:10164000832A4102032B0102832BC101032C810158
:10165000832C4101032D0101832DC10013010104DD
:101660006780000037B50940130585B56FF04FA3BB
:1016700037D508401305C5596F30982C37D5084029
:10168000130101FD1305055B23261102232291029C
:1016900023202103232E3101232C4101232A510130
:1016A000232861012326710123248102EF30582968
:1016B00037D508401305455CEF3098289304600047
:1016C000130A0000B7DB0840B7D9084037AB084021
:1016D00013090000930A600393050A0013858B5DCC
:1016E000EF30D82013040A008B35240113041400B2
:1016F0001385095EEF30981FE31894FE13050B2C39
:1017000093046400EF30D823130A6A00E39654FD73
:101710008320C102032481028324410203290102A0
:101720008329C101032A8101832A4101032B01017D
:10173000832BC100130101036780000037B5094006
:10174000130505BA6FF0CF95678000006780000031
:10175000130720006302E50E6344A704630605082F
:1017600013071000631EE506931786003707FF0076
:10177000B3F7E7001317860113550601B3E7E70037
:10178000370701001307F7FF131585003375E500D0
:10179000B367F500135586013365F50067800000D7
:1017A00013073000631EE5029307E00213050000F3
:1017B00063E6C702130510006302060293071000D8
:1017C0006F008000130507001306F6FF3387A7009C
:1017D00093070500E31806FE67800000678000009D
:1017E00013050000678000009375F60F93F7F60F5E
:1017F00013578600B387B7001377F70F93D586008A
:10180000B387E70093F5F50F13570601B387B700C9
:101810001377F70F13D50601B387E7001375F50F9C
:10182000B387A700135586013385A70093D6860199
:101830003305D50067800000130500001307000082
:101840001308F00193050002B357E600B306E84021
:1018500093F71700B397D700130717003365F50008
:10186000E314B7FE6780000003230500130101FCA9
:101870002324C1022326D1022328E102232AF102D4
:10188000232C0103232E11038327830013068102D7
:10189000232E11002326C100E78007008320C10109
:1018A00013010104678000009376F50F1307100100
:1018B000636ED712B7D708409387076313152500C7
:1018C0003305F500832705006780070093071001A3
:1018D00023A0F50013050000678000009307200196
:1018E00023A0F50013050000678000009307100097
:1018F00023A0F50013050000678000009307A000F7
:1019000023A0F50013050000678000009307200066
:1019100023A0F50013050000678000009307300046
:1019200023A0F50013050000678000009307400026
:1019300023A0F50013050000678000009307500006
:1019400023A0F500130500006780000093076000E6
:1019500023A0F500130500006780000093077000C6
:1019600023A0F500130500006780000093078000A6
:1019700023A0F50013050000678000009307900086
:1019800023A0F50013050000678000009307B00056
:1019900023A0F50013050000678000009307C00036
:1019A00023A0F50013050000678000009307D00016
:1019B00023A0F50013050000678000009307E000F6
:1019C00023A0F50013050000678000009307F000D6
:1019D00023A0F500130500006780000093070001B5
:1019E00023A0F5001305000067800000130101FF2C
:1019F000232611009307060023A00500B7D5084051
:101A0000130605009385C56013850700EFF0DFE539
:101A10008320C1001305100013010101678000003D
:101A2000130500006780000003270600130101FF73
:101A30009307060003270700232481002322910037
:101A40001304050013064000138507002326110028
:101A50009305800093840600E700070083270400B5
:101A60001306A00023200500B307F44003D70700A6
:101A700023020500637EE60883D6A700638A060872
:101A8000B306D40003C606009306B0006312D6085E
:101A90009306C00063FEE60683D7C7003304F40054
:101AA000638807068327040013064000130710000D
:101AB0003304F40083270400B307F44083D60700FF
:101AC0006376D60403D7470093050000630E070032
:101AD0003307E400030807001307F8FF1377F70F35
:101AE0006364E600930508002320B5001307600037
:101AF000637ED70283D7670013071000638807004F
:101B00003304F400034704003337E0002302E50008
:101B10008320C1000324810023A0A400832441006A
:101B20001305000013010101678000001307100076
:101B30002302E5006FF0DFFD130500006780000061
:101B400083270600130101FE232A910083A70700C3
:101B500093040600232C810023282101130405008F
:101B60002326310123244101232E1100138A05006D
:101B70001306400093054000138504009389060076
:101B8000E7800700832704009306A00023200500B8
:101B9000B307F44003D707001309050063F6E60016
:101BA00083D6A7006398060223A02901130400002E
:101BB0008320C10113050400032481018324410112
:101BC000032901018329C100032A810013010102B5
:101BD00067800000B306D40003C6060093068002A7
:101BE000E314D6FC9306C000E3F0E6FC83D7C700FD
:101BF0003304F400E38A07FA832704001307400044
:101C0000130500003304F40083270400B307F440F5
:101C100083D60700637AD70083D74700638607001F
:101C20003304F4000305040013060A0093050900B9
:101C3000EFF09FC713040500E30805F683A704002F
:101C4000930509001385040083A74700E780070078
:101C50006FF01FF683270600130101FE232A91006F
:101C600083A7070093040600232C81002328210169
:101C7000130405002326310123244101232E1100E2
:101C8000138A0500130640009305400013850400E5
:101C900093890600E7800700832704009306A000CD
:101CA00023200500B307F44003D7070013090500FC
:101CB00063F6E60083D6A7006398060223A02901F5
:101CC000130400008320C1011305040003248101D3
:101CD00083244101032901018329C100032A8100D2
:101CE0001301010267800000B306D40003C606009A
:101CF00093069003E314D6FC9306C000E3F0E6FCE1
:101D000083D7C7003304F400E38A07FA832704006B
:101D100013074000130500003304F4008327040078
:101D2000B307F44083D60700637AD70083D7470010
:101D3000638607003304F4000305040013060A0059
:101D400093050900EFF05FB613040500E30805F6FC
:101D500083A70400930509001385040083A74700A7
:101D6000E78007006FF01FF6130500006780000092
:101D70001305000067800000130500006780000065
:101D8000130500006780000003270600130101FF10
:101D900093070600032707002324810023229100D4
:101DA00013040500232611001385070013064000C5
:101DB0009305400093840600E70007008327040092
:101DC0009306A00023200500B307F44003D70700C3
:101DD00063F2E60683D6A700638E0604B306D4003A
:101DE00003C60600930670066316D6049306C00069
:101DF00063F2E60483D7C7003304F400638C070260
:101E00008327040093064000130700003304F40006
:101E100083270400B307F44003D6070063FAC60023
:101E200083D74700638607003304F40003270400C8
:101E30002320E5008320C1000324810023A0A40007
:101E40008324410013050000130101016780000095
:101E500083270600130101FE2322510183A70700F7
:101E6000930A0600232C8100232A91001304050005
:101E70002326310123244101232E1100232821018F
:101E800093890500130640009305800013850A001E
:101E9000138A0600E7800700832704009306A0004A
:101EA00023200500B307F44003D7070023220500D1
:101EB0009304050063F6E60083D6A700639A060242
:101EC00023209A00130900008320C101032481010B
:101ED000832441018329C100032A8100832A410010
:101EE00013050900032901011301010267800000A5
:101EF000B306D40003C6060093065002E312D6FCD4
:101F00009306C000E3FEE6FA83D7C7003304F4006B
:101F1000E38807FA83270400130740001305000035
:101F20003304F40083270400B307F44083D607008A
:101F3000637AD70083D7470063860700B307F400AE
:101F4000038507001386090093850400EFF0DF95F1
:101F500013090500631005048327040013076000BC
:101F600013050000B307F44083D60700637AD70057
:101F700083D76700638607003304F4000305040079
:101F80001386090093854400EFF01F9213090500A2
:101F9000E30805F283A70A009385040013850A006D
:101FA00083A74700E78007006FF01FF213050000CA
:101FB0006780000003270600130101FF9307060056
:101FC0000327070023248100232291001304050026
:101FD0001306400013850700232611009305800097
:101FE00093840600E7000700832704001307A0007E
:101FF00023200500B307F44003D607002322050081
:102000006374C70883D6A70063800608B306D400AC
:1020100083C60600639AE6061307C0006376C70608
:1020200083D7C7003304F4006380070683270400C6
:10203000930660003304F40083270400B307F440E0
:1020400003D7070063F0E60603D767009306000096
:10205000630007023307E40003060700930540000E
:102060001307F6FF1377F70F63E4E5009306060006
:102070002322D50083D74700638A07023304F40084
:10208000832704002320F5008320C100032481005E
:1020900023A0A400832441001305000013010101C3
:1020A0006780000093064000E3E6E6FC930700002B
:1020B0002320F5006FF05FFD03270600130101FFE9
:1020C00093070600032707002324810023229100A1
:1020D0001304050013064000138507002326110092
:1020E0009305800193840600E7000700832704001E
:1020F0001306A00023200500B307F44003D7070010
:10210000232205002324050023260500232805009B
:10211000232A05006370E61203D6A700630C06109D
:102120003306C40083450600930610006394D5105F
:102130009306C00063F0E61003D7C700B307E400BE
:10214000630A070E03A7070013064000B387E700E2
:1021500003A707003387E74083560700637AD60E4C
:102160008355470013081000638E0500B385B70040
:1021700003860500630806001306F6FF13361600F3
:102180001318160023200501130660006374D60C93
:102190000356670093050000630606003386C700F8
:1021A000832506002322B500130680006374D60A37
:1021B0000356870093050000630606003386C700B8
:1021C000832506002324B5001306A0006374D608F7
:1021D0000356A700630006083386C70003060600FF
:1021E000130840009305F6FF93F5F50F6364B806F6
:1021F0002326C5001306C0006376D6060356C70023
:1022000093051000630606003386C7008325060089
:102210002328B5001306E0006370D6068356E70056
:102220001307100063860600B387D70003A70700D3
:10223000232AE5008320C1000324810023A0A400F9
:102240008324410013050000130101016780000091
:102250002320B500130600002326C5001306C00086
:10226000E36ED6F893071000130710002328F5003B
:10227000232AE5006FF01FFC13071000232AE50056
:102280006FF05FFB03270600130101FF93070600B1
:102290000327070023248100232291001304050053
:1022A0001306100013850700232611009305200054
:1022B00093840600E7000700832704001306A000AC
:1022C00023000500B307F44003D70700A30005006F
:1022D0006374E60883D6A70063800608B306D400BB
:1022E00003C60600930660066318D6069306C00070
:1022F00063F4E60683D7C7003304F400638E070453
:1023000083270400930640003304F400832704006D
:10231000B307F44003D7070063FEE60403D6470083
:1023200093060000630806003306C40083460600D7
:10233000B336D0002300D5009306600063FCE602AC
:1023400083D76700638807023304F40083470400DF
:10235000B337F000A300F5008320C10003248100FF
:1023600023A0A400832441001305000013010101F0
:102370006780000093070000A300F5006FF0DFFD09
:10238000130500006780000003270600130101FF0A
:1023900093070600032707002324810023229100CE
:1023A00013040500232611001385070013064000BF
:1023B0009305400093840600E7000700832704008C
:1023C0009306A00023200500B307F44003D70700BD
:1023D00063F2E60683D6A700638E0604B306D40034
:1023E00003C606009306E0056316D6049306C000F4
:1023F00063F2E60483D7C7003304F400638C07025A
:102400008327040093064000130700003304F40000
:1024100083270400B307F44003D6070063FAC6001D
:1024200083D74700638607003304F40003270400C2
:102430002320E5008320C1000324810023A0A40001
:10244000832441001305000013010101678000008F
:1024500003270600130101FF930706000327070067
:102460002324810023229100130405001306400059
:1024700013850700232611009305C00193840600ED
:10248000E7000700832704001306A00023200500AF
:10249000B307F44003D707002322050023240500D7
:1024A0002326050023280500232A0500232C0500E8
:1024B0006370E61403D6A700630C06123306C4004B
:1024C00003460600930620006314D6129306C0004C
:1024D00063F0E61203D7C700B307E400630A0710EE
:1024E00003A7070013064000B387E70003A7070010
:1024F0003387E74083560700637AD6108355470039
:1025000013081000638E0500B385B700038605002D
:10251000630806001306F6FF13361600131816009C
:1025200023200501130660006376D60E035667006C
:1025300093050000630606003386C7008325060066
:102540002322B500130680006376D60C035687005D
:1025500093050000630606003386C7008325060046
:102560002324B5001306A0006376D60A0356A700FD
:1025700093050000630606003386C7008325060026
:102580002326B5001306C0006376D6080356C7009D
:10259000630206083386C7000306060013084000DE
:1025A0009305F6FF93F5F50F6366B8062328C5007B
:1025B0001306E0006378D6060356E7009305100083
:1025C000630606003386C70083250600232AB5006C
:1025D000130600016372D606835607011307100025
:1025E00063860600B387D70003A70700232CE50006
:1025F0008320C1000324810023A0A4008324410080
:10260000130500001301010167800000130610008C
:102610002320C500130600002328C5001306E00090
:10262000E36CD6F89307100013071000232AF50077
:10263000232CE5006FF0DFFB13071000232CE500CF
:102640006FF01FFB130500006780000003270600E2
:10265000130101FF930706000327070023248100CD
:10266000232291001304050023261100138507007F
:10267000130640009305400093840600E70007001E
:10268000832704009306A00023200500B307F4402D
:1026900003D7070063FAE60683D6A700638606061B
:1026A000B306D40003C606009306D001631ED60409
:1026B0009306C00063FAE60483D7C7003304F4002E
:1026C0006384070483270400930640001307000077
:1026D0003304F40083270400B307F44003D6070053
:1026E00063F2C60283D74700638E07003304F40009
:1026F000030604009307F6FF93F7F70F63E4F60071
:10270000130706002320E5008320C1000324810075
:1027100023A0A4008324410013050000130101013C
:1027200067800000130500006780000013050000AB
:10273000678000001305000067800000130500009B
:10274000678000001305000067800000130500008B
:10275000678000001305000067800000130500007B
:102760006780000083270600130101FE2326310144
:1027700083A7070093090600232C8100232A9100D8
:10278000130405002328210123244101232E1100D5
:10279000138A0500130640009305C0001385090045
:1027A00013890600E7800700832704009306A00032
:1027B00023200500B307F44003D7070023220500B8
:1027C000231405009304050063F6E60083D6A700F2
:1027D000639606028320C10103248101232099000E
:1027E0008329C1008324410103290101032A8100B7
:1027F000130500001301010267800000B306D40036
:1028000003C6060093068000E316D6FC9306C000BC
:10281000E3F2E6FC83D7C7003304F400E38C07FA45
:1028200003250400930640003304A400832704001A
:10283000B307F44003D7070063F0E60E03D6470062
:1028400093050000630E06003306C400030506006E
:102850001306F5FF1376F60F63E4C6009305050033
:1028600023A0B4009306800063F8E60A03D687002D
:1028700093060000630806003306C4008346060082
:10288000B336D0002384D4009306A00063F0E602A0
:1028900083D6A7001307000063880600B306D400A0
:1028A00003C706003337E000A384E40083D7670042
:1028B000E38207F23304F40083070400E38C07F09B
:1028C000130710006396E70023A2F4006FF09FF057
:1028D000B7D508409385856713050A00EFE0DFF858
:1028E00083A70900138509009385040083A7470087
:1028F000E78007008320C101032481018324410173
:10290000032901018329C100032A81001305100056
:10291000130101026780000093066000E3FCE6EA11
:102920006FF0DFF803270600130101FF930706008D
:1029300003270700232481002322910013040500AC
:10294000232611001385070013064000930580001D
:1029500093840600E7000700832704009306A00085
:1029600023200500B307F44003D707002322050006
:1029700063F0E60883D6A700638C0606B306D4008E
:1029800003C60600930670016314D6069306C000C2
:1029900063F0E60683D7C7003304F400638A0704B4
:1029A00083270400930640003304F40083270400C7
:1029B000B307F44003D7070063FAE60483D6470061
:1029C0001306000063860600B306D40003A60600C3
:1029D0002320C5009306600063FAE60283D76700F0
:1029E000638607023304F400832704002322F500E2
:1029F0008320C1000324810023A0A400832441007C
:102A00001305000013010101678000009307000017
:102A10002322F5006FF0DFFD130500006780000042
:102A200013050000678000001305000067800000A8
:102A3000130500006780000003270600130101FF53
:102A40009307060003270700232481002322910017
:102A50001304050023261100138507001306400008
:102A60009305800093840600E70007008327040095
:102A70009306A00023200500B307F44003D7070006
:102A80002322050063F0E60883D6A700638C0606C0
:102A9000B306D40003C606009306C0056314D60629
:102AA0009306C00063F0E60683D7C7003304F40042
:102AB000638A070483270400930640003304F4006C
:102AC00083270400B307F44003D7070063FAE60442
:102AD00083D647001306000063860600B306D400C1
:102AE00003A606002320C5009306600063FAE602F1
:102AF00083D76700638607023304F400832704004A
:102B00002322F5008320C1000324810023A0A40018
:102B100083244100130500001301010167800000B8
:102B2000930700002322F5006FF0DFFD0327060066
:102B3000130101FF930706000327070023248100E8
:102B4000232291001304050023261100138507009A
:102B5000130640009305400093840600E700070039
:102B6000832704009306A00023200500B307F44048
:102B700003D7070063F8E60683D6A700638406063A
:102B8000B306D40083C606001306C000639CC604C7
:102B900063FAE60483D7C7003304F40063840704B0
:102BA0008327040093064000130700003304F40059
:102BB00083270400B307F44003D6070063F2C6027C
:102BC00083D74700638E07003304F4000306040034
:102BD0009307F6FF93F7F70F63E4F6001307060079
:102BE0002320E5008320C1000324810023A0A4004A
:102BF00083244100130500001301010167800000D8
:102C000003270600130101FF9307060003270700AF
:102C100023248100232291001304050023261100A0
:102C200013850700130640009305400093840600B7
:102C3000E700070083270400130700002320E500B6
:102C4000B307F44003D707009306A00063F2E6063B
:102C500083D6A700638E0604B306D40003C606001D
:102C60009306B0046316D6049306C00063F2E6042C
:102C700083D7C7003304F400638C07028327040062
:102C800093064000130700003304F4008327040078
:102C9000B307F44003D6070063FAC60083D74700A2
:102CA000638607003304F400032704002320E500B3
:102CB0008320C1000324810023A0A40083244100B9
:102CC00013050000130101016780000013050000D7
:102CD00067800000130500006780000013050000F6
:102CE00067800000130500006780000013050000E6
:102CF00067800000130500006780000013050000D6
:102D000067800000130500006780000013050000C5
:102D1000678000001305000067800000032706009D
:102D2000130101FF930706000327070023248100F6
:102D300023229100130405002326110013850700A8
:102D4000130640009305400093840600E700070047
:102D5000832704009306A00023200500B307F44056
:102D600003D7070063FAE60683D6A7006386060644
:102D7000B306D40003C606009306D004631ED6042F
:102D80009306C00063FAE60483D7C7003304F40057
:102D90006384070483270400930640001307100090
:102DA0003304F40083270400B307F44003D607007C
:102DB00063F2C60283D74700638E07003304F40032
:102DC00083070400638807001387F7FF1337170092
:102DD000131717002320E5008320C100032481007E
:102DE00023A0A40083244100130500001301010166
:102DF0006780000003270600130101FF9307060008
:102E000003270700232481002322910013040500D7
:102E10002326110013850700130640009305400088
:102E200093840600E7000700832704009306A000B0
:102E300023200500B307F44003D7070063FAE60632
:102E400083D6A70063860606B306D40003C6060031
:102E500093065001631ED6049306C00063FAE6048D
:102E600083D7C7003304F400638407048327040076
:102E700093064000130700003304F4008327040086
:102E8000B307F44003D6070063F2C60283D74700B6
:102E9000638E07003304F400030604009307F6FF73
:102EA00093F7F70F63E4F600130706002320E5000D
:102EB0008320C1000324810023A0A40083244100B7
:102EC00013050000130101016780000013050000D5
:102ED00067800000130500006780000003270600DC
:102EE000130101FF93070600032707002324810035
:102EF00023229100130405002326110013850700E7
:102F0000130640009305800093840600E700070045
:102F1000832704009306A00023200500B307F44094
:102F200003D707002322050063F0E60883D6A70035
:102F3000638C0606B306D40003C606009306B003EE
:102F40006314D6069306C00063F0E60683D7C70075
:102F50003304F400638A07048327040093064000C7
:102F60003304F40083270400B307F44003D70700B9
:102F700063FAE60483D64700130600006386060062
:102F8000B306D40003A606002320C5009306600004
:102F900063FAE60283D76700638607023304F4000E
:102FA000832704002322F5008320C100032481002D
:102FB00023A0A40083244100130500001301010194
:102FC00067800000930700002322F5006FF0DFFD0B
:102FD00013050000678000001305000067800000F3
:102FE00003270600130101FF9307060003270700CC
:102FF00023248100232291001304050013064000BE
:103000001385070023261100930580029384060090
:10301000E7000700832704001306A0002320050013
:10302000B307F44003D7070023220500232405003B
:103030002326050023280500232A0500232C05004C
:10304000232E050023200502232205026370E612C9
:1030500003D6A700630C06103306C400034606001F
:10306000930650006314D6109306C00063F0E61078
:1030700083D7C7003304F400638A070E8327040054
:10308000130740003304F40083270400B307F4401F
:1030900083D60700637AD70E03D7470013061000C4
:1030A000630E07003307E400030707006308070007
:1030B0001307F7FF13371700131617002320C50057
:1030C000130760006376D70C03D767001306000070
:1030D000630607003307E400032607002322C50028
:1030E000130780006376D70A03D787001306000012
:1030F000630607003307E400032607002324C50006
:103100001307A0006376D70803D7A70013060000B3
:10311000630607003307E400032607002326C500E3
:103120001307C0006376D70603D7C7001306000055
:10313000630607003307E400032607002328C500C1
:103140001307E0006376D70483D7E70063820704A0
:103150003304F40083070400930640001387F7FF4D
:103160001377F70F63E6E602232AF5008320C100F8
:103170000324810023A0A400832441001305000040
:103180001301010167800000930710002320F50060
:1031900093070000232AF5006FF05FFD1305000080
:1031A0006780000013050000678000001305000021
:1031B0006780000003270600130101FF9307060044
:1031C0000327070023248100232291001304050014
:1031D0002326110013850700130610009305100025
:1031E00093840600E7000700832704009306A000ED
:1031F00023000500B307F44003D7070063F4E60695
:1032000083D6A70063800606B306D40003C6060073
:103210009306B0016318D6049306C00063F4E60475
:1032200083D7C7003304F400638E070283270400AA
:1032300093064000130700003304F40083270400C2
:10324000B307F44003D6070063FCC60083D74700EA
:10325000638807003304F400034704003337E000B9
:103260002300E5008320C1000324810023A0A400E3
:103270008324410013050000130101016780000051
:103280001305000067800000130500006780000040
:1032900083270600130101FE2326310183A70700BF
:1032A00093090600232C8100232A91002328210161
:1032B0009304050023244101232E1100138A0500E5
:1032C0001306400093054002138509001389060088
:1032D000E780070083A704009306A00023200500D1
:1032E000B387F44003D707002322050023240500F9
:1032F0002326050023280500232A0500232C05008A
:10330000232E0500232005021304050063F6E600C2
:1033100083D6A70063960602232089008320C1017B
:103320000324810183244101032901018329C10070
:10333000032A8100130500001301010267800000C9
:10334000B386D40003C6060093061001E316D6FC2C
:103350009306C000E3F2E6FC83D7C700B384F40011
:10336000E38C07FA83A7040013074000B384F4003A
:1033700083A70400B387F44083D60700E37ED7F821
:1033800083D74700E38A07F8B384F40083A70400D7
:1033900013078000B384F40083A704006364F70874
:1033A000638E070683A64400130710002320D50070
:1033B0006386E70683A68400130720002322D50036
:1033C000638EE70483A6C400130730002324D500CE
:1033D0006386E70483A60401130740002326D50073
:1033E000638EE70283A64401130750002328D5000B
:1033F0006386E70283A6840113076000232AD500B1
:10340000638EE70083A6C40113077000232CD50048
:103410006386E70003A70402232EE5002320F402BD
:103420006FF09FEF37D60840B7D508401306466ABD
:103430009385C56A13050A00EFE00FC383A709004F
:10344000138509009305040083A74700E780070060
:103450008320C10103248101832441010329010147
:103460008329C100032A8100130510001301010202
:103470006780000003270600130101FF9307060081
:103480000327070023248100232291001304050051
:103490001306100013850700232611009305200052
:1034A00093840600E7000700832704001306A000AA
:1034B00023000500B307F44003D70700A30005006D
:1034C0006374E60883D6A70063800608B306D400B9
:1034D00003C606009306F0006318D6069306C000E4
:1034E00063F4E60683D7C7003304F400638E070451
:1034F00083270400930680003304F400832704002C
:10350000B307F44003D7070063FEE60403D6870041
:1035100093060000630806003306C40083460600D5
:10352000B336D0002300D5009306A00063FCE6026A
:1035300083D7A700638807023304F400834704009D
:10354000B337F000A300F5008320C10003248100FD
:1035500023A0A400832441001305000013010101EE
:103560006780000093070000A300F5006FF0DFFD07
:1035700003270600130101FF930706000327070036
:103580002324810023229100130405001306100058
:10359000138507002326110093052000938406005D
:1035A000E7000700832704001306A000230005009E
:1035B000B307F44003D70700A30005006374E608CF
:1035C00083D6A70063800608B306D40003C60600AE
:1035D0009306A0046318D6069306C00063F4E606BB
:1035E00083D7C7003304F400638E070483270400E5
:1035F000930640003304F40083270400B307F4402B
:1036000003D7070063FEE60403D6470093060000D5
:10361000630806003306C40083460600B336D000B4
:103620002300D5009306600063FCE60283D76700A1
:10363000638807023304F40083470400B337F000C3
:10364000A300F5008320C1000324810023A0A4006F
:10365000832441001305000013010101678000006D
:1036600093070000A300F5006FF0DFFD13050000D5
:10367000678000001305000067800000130500004C
:103680006780000083270600130101FE232A9100B2
:1036900083A7070093040600232C8100232821011F
:1036A000130405002326310123244101232E110098
:1036B000138A05001306400093054000138504009B
:1036C00093890600E7800700832704009306A00083
:1036D00023200500B307F44003D7070013090500B2
:1036E00063F6E60083D6A7006398060223A02901AB
:1036F000130400008320C101130504000324810189
:1037000083244101032901018329C100032A810087
:103710001301010267800000B306D40003C606004F
:1037200093067003E314D6FC9306C000E3F0E6FCB6
:1037300083D7C7003304F400E38A07FA8327040021
:1037400013074000130500003304F400832704002E
:10375000B307F44083D60700637AD70083D74700C6
:10376000638607003304F4000305040013060A000F
:1037700093050900EFE04F9313040500E30805F6F5
:1037800083A70400930509001385040083A747005D
:10379000E78007006FF01FF6130500006780000048
:1037A000130500006780000003270600130101FFD6
:1037B000930706000327070023248100232291009A
:1037C000130405002326110013850700130640008B
:1037D0009305400093840600E70007008327040058
:1037E000130700002320E500B307F44003D70700C8
:1037F0009306A00063F2E60683D6A700638E060454
:10380000B306D40003C60600930690006316D604E0
:103810009306C00063F2E60483D7C7003304F400C4
:10382000638C0702832704009306400013070000FF
:103830003304F40083270400B307F44003D60700E1
:1038400063FAC60083D74700638607003304F40099
:10385000032704002320E5008320C1000324810006
:1038600023A0A400832441001305000013010101DB
:103870006780000013050000678000000327060032
:10388000130101FF9307060003270700232481008B
:10389000232291001304050023261100138507003D
:1038A000130640009305400093840600E7000700DC
:1038B000832704009306A00023200500B307F440EB
:1038C00003D7070063F2E60683D6A700638E0604DB
:1038D000B306D40003C60600930630016316D6046F
:1038E0009306C00063F2E60483D7C7003304F400F4
:1038F000638C07028327040093064000130700002F
:103900003304F40083270400B307F44003D6070010
:1039100063FAC60083D74700638607003304F400C8
:10392000032704002320E5008320C1000324810035
:1039300023A0A4008324410013050000130101010A
:103940006780000003270600130101FF93070600AC
:10395000032707002324810023229100130405007C
:10396000232611001385070013064000930540002D
:1039700093840600E7000700832704009306A00055
:1039800023200500B307F44003D7070063F2E606DF
:1039900083D6A700638E0604B306D40003C60600D0
:1039A000930630026316D6049306C00063F2E60461
:1039B00083D7C7003304F400638C07028327040015
:1039C00093064000130700003304F400832704002B
:1039D000B307F44003D6070063FAC60083D7470055
:1039E000638607003304F400032704002320E50066
:1039F0008320C1000324810023A0A400832441006C
:103A00001305000013010101678000000327060071
:103A1000130101FF930706000327070023248100F9
:103A200023229100130405002326110013850700AB
:103A3000130640009305400093840600E70007004A
:103A4000832704009306A00023200500B307F44059
:103A500003D7070063F2E60683D6A700638E060449
:103A6000B306D40003C606009306F0046316D6041A
:103A70009306C00063F2E60483D7C7003304F40062
:103A8000638C07028327040093064000130700009D
:103A90003304F40083270400B307F44003D607007F
:103AA00063FAC60083D74700638607003304F40037
:103AB000032704002320E5008320C10003248100A4
:103AC00023A0A40083244100130500001301010179
:103AD0006780000003270600130101FF930706001B
:103AE00003270700232481002322910013040500EB
:103AF00013064000138507002326110093050001DB
:103B000093840600E7000700832704009306000063
:103B100023200500B307F44003D707001306A000D5
:103B20002322D5002324D5002316050023070500F2
:103B3000637EE61003D6A700630A06103306C400AE
:103B400003460600930670046312D6109306C00065
:103B500063FEE60E03D7C700B307E4006308070E51
:103B600003A7070013064000B387E70003A7070079
:103B70003387E740835607006378D60E83554700A6
:103B800013080000638E0500B385B7008388050025
:103B90009385F8FF93F5F50F6364B600138808006A
:103BA00023200501130660006370D60C03566700DE
:103BB00093050000630606003386C70083250600D0
:103BC0002322B500130680006370D60A03568700CF
:103BD00093050000630606003386C70083250600B0
:103BE0002324B5001306A0006370D6088355A700F0
:103BF0001306000063880500B385B70003C60500FF
:103C00003336C0002306C5001306C000637ED60409
:103C10008355C7001306000063880500B385B7000D
:103C200003C605003336C000A306C5001306E00036
:103C3000637CD6020357E70063080702B387E700F7
:103C400083C70700B337F0002307F5008320C100C6
:103C50000324810023A0A400832441001305000055
:103C60001301010167800000930700002307F5009E
:103C70006FF0DFFD83270600130101FE23263101CB
:103C800083A7070093090600232C8100232A9100B3
:103C9000232821019304050023244101232E110030
:103CA000138A05001306400093054002138509009E
:103CB00013890600E780070083A704009306A0008D
:103CC00023200500B387F44003D707002322050013
:103CD000232405002326050023280500232A0500A8
:103CE000232C0500232E05002320050213040500C4
:103CF00063F6E60083D6A7006396060223208900B8
:103D00008320C1010324810183244101032901018E
:103D10008329C100032A8100130500001301010259
:103D200067800000B386D40003C606009306E00156
:103D3000E316D6FC9306C000E3F2E6FC83D7C70087
:103D4000B384F400E38C07FA83A704001307400050
:103D5000B384F40083A70400B387F44083D607003C
:103D6000E37ED7F883D74700E38A07F8B384F400EB
:103D700083A7040013078000B384F40083A7040022
:103D80006364F708638E070683A6440013071000D8
:103D90002320D5006386E70683A68400130720004E
:103DA0002322D500638EE70483A6C40013073000E6
:103DB0002324D5006386E70483A60401130740008B
:103DC0002326D500638EE70283A644011307500023
:103DD0002328D5006386E70283A6840113076000C9
:103DE000232AD500638EE70083A6C4011307700061
:103DF000232CD5006386E70003A70402232EE500E9
:103E00002320F4026FF09FEF37D60840B7D5084063
:103E10001306066F9385C56A13050A00EFD0DFA469
:103E200083A70900138509009305040083A74700B1
:103E3000E78007008320C10103248101832441011D
:103E4000032901018329C100032A81001305100001
:103E50001301010267800000130500006780000065
:103E60001305000067800000130500006780000054
:103E700003270600130101FF93070600032707002D
:103E8000232481002322910013040500130640001F
:103E90001385070023261100930540019384060033
:103EA000E7000700832704001306A0002320050075
:103EB000B307F44003D7070023220500232405009D
:103EC00023260500232805006370E60E83D6A7008D
:103ED000638C060CB306D40003C6060093060002EA
:103EE0006314D60C9306C00063F0E60C83D7C700BA
:103EF0003304F400638A070A832704009306400012
:103F00003304F40083270400B307F44003D7070009
:103F100063FAE60A83D647001306000063860600AC
:103F2000B306D40003A606002320C5009306600054
:103F300063FAE60883D6670013060000638606006E
:103F4000B306D40003A606002322C5009306800012
:103F500063FAE60683D68700130600006386060030
:103F6000B306D40003A606002324C5009306A000D0
:103F700063FAE60483D6A7001306000063860600F2
:103F8000B306D40003A606002326C5009306C0008E
:103F900063FAE60283D7C700638607023304F4009E
:103FA000832704002328F5008320C1000324810017
:103FB00023A0A40083244100130500001301010184
:103FC00067800000930700002328F5006FF0DFFDF5
:103FD00003270600130101FF9307060003270700CC
:103FE00023248100232291001304050013064000BE
:103FF0001385070023261100930580009384060093
:10400000E7000700832704001306A0002320050013
:10401000B307F44003D7070023020500637EE608D8
:1040200083D6A700638A0608B306D40003C6060039
:104030009306C0016312D6089306C00063FEE6062D
:1040400083D7C7003304F40063880706832704007E
:1040500013064000130710003304F4008327040004
:10406000B307F44083D607006376D60403D747002E
:1040700093050000630E07003307E4000308070000
:104080001307F8FF1377F70F6364E6009305080042
:104090002320B50013076000637ED70283D7670033
:1040A00013071000638807003304F400034704007B
:1040B0003337E0002302E5008320C10003248100A0
:1040C00023A0A40083244100130500001301010173
:1040D00067800000130710002302E5006FF0DFFD8A
:1040E00003270600130101FF9307060003270700BB
:1040F00023248100232291001304050013064000AD
:1041000013850700232611009305C0009384060041
:10411000E7000700832704001306A0002320050002
:10412000B307F44003D7070023220500230405004A
:10413000637CE60A83D6A7006388060AB306D40028
:1041400003C60600930660006310D60A9306C000FB
:1041500063FCE60883D7C7003304F40063860708CE
:1041600083270400930640003304F40083270400EF
:10417000B307F44003D7070063F6E60883D6470089
:104180001306000063860600B306D40003A60600EB
:104190002320C5009306600063FCE60683D6670013
:1041A0001306000063800602B306D4008385060070
:1041B000130840009386F5FF93F6F60F6364D8006A
:1041C000138605002322C5009306800063FCE602E7
:1041D00083D78700638807023304F4008347040011
:1041E000B337F0002304F5008320C10003248100CD
:1041F00023A0A40083244100130500001301010142
:1042000067800000930700002304F5006FF0DFFDD6
:10421000130600006FF01FFB13050000678000000D
:10422000130500006780000003270600130101FF4B
:10423000930706000327070023248100232291000F
:104240001304050013064000138507002326110000
:104250009305000193840600E7000700832704000C
:104260001306A00023200500B307F44003D707007E
:104270002322050023240500232605006370E60E93
:1042800083D6A700638C060CB306D40003C60600D1
:10429000930610036314D60C9306C00063F0E60C7B
:1042A00083D7C7003304F400638A070A8327040016
:1042B000930640003304F40083270400B307F4405E
:1042C00003D7070063FAE60A03D6470093051000F8
:1042D000630E06003306C4008306060063880600EA
:1042E0009386F6FF93B61600939516002320B5002B
:1042F0009306600063F6E60883D6670013060000A5
:1043000063860600B306D40003A606002322C50078
:104310009306800063F6E60683D687001306000046
:1043200063860600B306D40003A606002324C50056
:104330009306A00063F6E60483D7A7006382070410
:104340003304F40083070400930640001387F7FF4B
:104350001377F70F63E6E6022326F5008320C100FA
:104360000324810023A0A40083244100130500003E
:104370001301010167800000930710002320F5005E
:10438000930700002326F5006FF05FFD032706006A
:10439000130101FF93070600032707002324810070
:1043A0002322910013040500232611001385070022
:1043B000130640009305800093840600E700070081
:1043C000832704009306A00023200500B307F440D0
:1043D00003D707002322050063F0E60883D6A70071
:1043E000638C0606B306D40003C6060093060004D9
:1043F0006314D6069306C00063F0E60683D7C700B1
:104400003304F400638A0704832704009306400002
:104410003304F40083270400B307F44003D70700F4
:1044200063FAE60483D6470013060000638606009D
:10443000B306D40003A606002320C500930660003F
:1044400063FAE60283D76700638607023304F40049
:10445000832704002322F5008320C1000324810068
:1044600023A0A400832441001305000013010101CF
:1044700067800000930700002322F5006FF0DFFD46
:1044800003270600130101FF930706000327070017
:104490002324810023229100130405001306400009
:1044A00013850700232611009305800093840600DE
:1044B000E7000700832704001306A000232005005F
:1044C000B307F44003D70700232205006376E6080C
:1044D00083D6A70063820608B306D40003C606008D
:1044E0009306F006631AD6069306C00063F6E60646
:1044F00083D7C7003304F4006380070683270400D2
:10450000130740003304F40083270400B307F4408A
:1045100083D607006372D70403D74700630C0700F4
:104520003307E400032607003307C70013074700DB
:104530002320E500130760006370D70283D767006C
:10454000638C07003304F400832704003304F40071
:1045500013044400232285008320C100032481002A
:1045600023A0A400832441001305000013010101CE
:104570006780000003270600130101FF9307060070
:104580000327070023248100232291001304050040
:1045900023261100138507001306400093058000B1
:1045A00093840600E7000700832704009306A00019
:1045B00023200500B307F44003D70700232205009A
:1045C00063F0E60883D6A700638C0606B306D40022
:1045D00003C606009306D0056314D6069306C000F2
:1045E00063F0E60683D7C7003304F400638A070448
:1045F00083270400930640003304F400832704005B
:10460000B307F44003D7070063FAE60483D64700F4
:104610001306000063860600B306D40003A6060056
:104620002320C5009306600063FAE60283D7670083
:10463000638607023304F400832704002322F50075
:104640008320C1000324810023A0A400832441000F
:1046500013050000130101016780000093070000AB
:104660002322F5006FF0DFFD1305000067800000D6
:10467000130101FE232C8100232A9100232821010C
:10468000232631012324410123225101232E11002D
:1046900023A00600930405009389050013890600F2
:1046A000130A0600EFD0D71783A7040093058000F4
:1046B00013040500B387F44003D70700930A1000E2
:1046C00063F6E50083D68700639006069305E0094C
:1046D00063C4850693060002630ED40683A709000F
:1046E00013860A009305040083A7070013850900B9
:1046F000E7800700930705002320A90013050000A9
:104700006386070A8320C1010324810183244101B8
:10471000032901018329C100032A8100832A410062
:104720001301010267800000B386D4009305E009FD
:1047300083AA0600E3D085FAB7D508401306040023
:104740009385856F13050A00EFD00F9213051000B3
:104750006FF05FFB9306600063FEE60283D567009F
:10476000638A050283A70900B384B40083A504000B
:1047700083A7470013860A00B385B40093854500DC
:1047800013850900E78007002320A90013351500D1
:104790006FF05FF7B7D508409385057F13050A00D2
:1047A000EFD08F8C130510006FF0DFF5634A040221
:1047B000B7E50840131424009385C5F93304B40009
:1047C00003260400B7D5084093860A009385C57474
:1047D00013050A00EFD04F89130510006FF09FF208
:1047E00037A608401306062C6FF0DFFD13051500F1
:1047F000131525006780000093070500630AB504C0
:1048000063040504638205040326050003A705006D
:1048100013050000631CC702635CC00213854700D8
:1048200093854500930700006F00C0009385450005
:104830006300F6028326050003A70500938717008F
:1048400013054500E384E6FE1305000067800000C1
:1048500013051000678000009307200163EEA70096
:10486000B7E708409387072D131525003385A70068
:10487000032505006780000037E508401305C521C2
:1048800067800000635EB008130101FE9395250068
:10489000232C8100232A910023263101232E11008D
:1048A000232821011304050093040600B309B50071
:1048B000032904009305000013050900EFE0C70574
:1048C000634AA0029307000023A0F40013044400ED
:1048D00093844400E39E89FC8320C1010324810169
:1048E00083244101032901018329C100130101022D
:1048F0006780000023A02401130444009384440033
:10490000E39889FA8320C1010324810183244101B2
:10491000032901018329C1001301010267800000FE
:1049200067800000635CB00A130101FEB7A709406D
:104930002322510183AA4741B7A7094023244101FB
:1049400003AA874193952500232C81002328210168
:1049500023263101232E1100232A91001304050080
:1049600013090600B309B5008324040093850A00E7
:1049700013850400EFD0577A9307050093050A00CA
:10498000138504006340F004EFD01779634EA00252
:10499000232049011304440013094900E31634FDA0
:1049A0008320C101032481018324410103290101E2
:1049B0008329C100032A8100832A410013010102D7
:1049C0006780000093840A002320990013044400A8
:1049D00013094900E39A89F86FF09FFC6780000093
:1049E0006354B00C130101FEB7A709402324410111
:1049F00003AAC74193952500232C81002328210178
:104A000023263101232E1100232A910013040500CF
:104A100013090600B309B5008324040093050A00B6
:104A200013850400EFD0576F93070500930500002E
:104A3000138504006340F004EFD0176E634EA002AC
:104A4000930700002320F9001304440013094900D0
:104A5000E31434FD8320C101032481018324410137
:104A6000032901018329C100032A810013010102E6
:104A70006780000093040A00232099001304440077
:104A800013094900E39A89F88320C10103248101B5
:104A900083244101032901018329C100032A8100E4
:104AA000130101026780000067800000635EB004AC
:104AB000130101FF939525002324810023229100F7
:104AC000232021012326110013040500930406006E
:104AD0003309B50003250400938444001304440003
:104AE00013250500EFE0D72723AEA4FEE31489FECB
:104AF0008320C10003248100832441000329010095
:104B00001301010167800000678000006354B00654
:104B100083070500130710009397C70193D7C74178
:104B20002300F6006388E5041306160093060500CB
:104B3000130700006F00C0018387060013062600DC
:104B40009397C70193D7C741A30FF6FE638405036C
:104B500083870600130807001307270093D74740F1
:104B6000935617402300F600B306D500130838000B
:104B7000E344B7FC67800000130101FE232C810091
:104B8000232A910013840600930406009306000074
:104B9000130600002328210123263101232E1100B2
:104BA0009309050013890500EFD0976D6314050282
:104BB00023A004008320C1012320040003248101D9
:104BC00083244101032901018329C100130101024A
:104BD000678000001306040013850900930509008F
:104BE000EF10C863B7A7094003A6074283A6474250
:104BF000EFF0C710EF301817EFE017286340B0064A
:104C0000638A05043707008083270400630AE502EE
:104C1000130710FE63D6E7002320040013050000ED
:104C20008320C1010324810123A0A40003290101E1
:104C3000832441018329C100130101026780000020
:104C4000E39805FC938717002320F4003705004004
:104C50006FF01FFCB7070080E3F6A7FAEFF0D75319
:104C6000130101FDB7A7094023202103232E3101A1
:104C7000138906009309060083A6C74203A687424C
:104C8000232481022322910223261102930405008A
:104C900013840500EFD0175F6358050813850400DF
:104CA000930504001306000093060000EFD0175E82
:104CB000635CA0061306C10013850400930504007D
:104CC000EF10C855B7A7094003A6074283A647427D
:104CD000EFF0C702EF301809EFE0171A6346B0048F
:104CE00063800506370700808327C1006300E50461
:104CF000130710FE63D6E70223A009009307000004
:104D00008320C102032481022320F900832441026D
:104D1000032901028329C1011301010367800000F7
:104D200023A0A900E35EF0FCEFF01747E39205FC37
:104D3000938717002326F100370500406FF05FFBD3
:104D4000B7070080E3F0A7FA6FF01FFE130101FD23
:104D500023286101130B0500370500803355E5005A
:104D600023261102232481022322910223202103DE
:104D7000232E3101232C410193890700232A51015D
:104D800023267101138A0500938A06009304080004
:104D9000930B0600EFF0477213090500138405001A
:104DA00093860A0013860B0093050A0013050B0077
:104DB000EFE0D7741306050093860500130509007C
:104DC00093050400EFE09773B7A7094003A9C74410
:104DD00003AA8744930A05009306090013060A00F4
:104DE00013840500EFD0974A6346A006B7A7094091
:104DF00003A6874283A6C74213850A0093050400D1
:104E0000EFD0D7486352A00A13850A009305040027
:104E10001306000093060000EFD0974663100504C8
:104E200023A0090023A004008320C10203248102DF
:104E300083244102032901028329C101032A81013C
:104E4000832A4101032B0101832BC10013010103BC
:104E500067800000930A0A00130409001386040007
:104E600013850A0093050400EF10483BB7A70940DB
:104E700003A6074283A64742EFE05768EF30886EEB
:104E8000EFE0877F6342B00263820504370700804A
:104E900083A704006302E502130710FE63C8E7005E
:104EA00023A0A900E3D207F8EFF0172F23A00400F6
:104EB00023A009006FF05FF7E39005FE93871700CA
:104EC00023A0F400370500406FF01FFDB7070080F6
:104ED000E3FEA7FA6FF05FFD130101FC232E7101C1
:104EE000930B0500370500803355E500232E110292
:104EF000232C8102232A9102232821032326310314
:104F00002324410323225103138A07002320610332
:104F1000232C8101938A0500138B060013090800D6
:104F200093890800130C0600EFF00759930405005D
:104F30001384050093060B0013060C0093850A00EA
:104F400013850B00EFE0975B1306050093860500C1
:104F50001385040093050400EFE0575AB7A70940F2
:104F600083AAC74403AB87449304050093860A00D1
:104F700013060B0013840500EFD057316344A012D1
:104F8000B7AA094003A68A4283A6CA421385040031
:104F900093050400EFD0972F6354A01013850400ED
:104FA000930504001306000093060000EFD0572D70
:104FB000631E050EB7A7094023200A0083A40745F6
:104FC00003A44745232009001307000093070000AE
:104FD0001306070013850400938607009305040059
:104FE000EFF0471203A68A4283A6CA429304050043
:104FF00013840500EFD017296354050A13850400B4
:10500000930504001306000093060000EFD0172854
:105010006358A0081306C10013850400930504001B
:10502000EF10C81FB7A7094003A6074283A647424F
:10503000EFE0D74CEF300853EFE007646342B0066F
:1050400063820512370700808327C1006302E510E1
:10505000130710FE63D2E70423A0090093070000A2
:10506000032701048320C103032481032320F700C5
:1050700083244103032901038329C102032A8102F6
:10508000832A4102032B0102832BC101032C8101DE
:10509000130101046780000023A0A900E352F0FC83
:1050A000EFF0970F93040B0013840A001306090016
:1050B0001385040093050400EF104816B7A70940B4
:1050C00003A6074283A64742EFE05743EF308849E3
:1050D000EFE0875AE346B0FC638C05083707008091
:1050E00083270900630CE504130710FE63CEE70273
:1050F0002320AA0013040500E3C407FA3705008043
:105100003355F500EFF0473B930405001305040009
:1051100013840500EFF0473A130705009387050055
:10512000B7AA09406FF0DFEA2320090023200A0014
:1051300013040000930700006FF05FFCE39605FA8C
:10514000938717002320F900370500406FF0DFF93F
:10515000E39005F0938717002326F1003705004000
:105160006FF01FEFB7070080E3FEA7EC6FF05FF36F
:10517000B7070080E3F4A7F66FF09FF2130101FE7A
:10518000232A91009304100023282101130905000C
:105190003395A4001305F5FF232C8100232631014C
:1051A00013040600232E110093890500EFF0C73089
:1051B00033062441930706FE1309050013840500F6
:1051C00063CE0706B395F40013050000EFF0473FE8
:1051D00013060500938605001305090093050400D6
:1051E000EFE0D731938709FE93040500138405008F
:1051F00063CC070493051000B395F5001305000078
:10520000EFF0073C130605009386050013850400A4
:1052100093050400EFE0176FEF00986EEFF0C73FC3
:105220008320C10103248101832441010329010159
:105230008329C1001301010267800000930500006B
:105240003395C4006FF09FF813051000930500001C
:10525000331535016FF0DFFA130101FF232611002A
:10526000232481002322910023202101938405001F
:10527000EF10C875B7A7094083A58745EFD057271A
:1052800013040500EF40D84EEF30C82DEF40D85D35
:1052900013090500EFE087369305090023A0A40059
:1052A00013050400EFD01724B7A7094083A5C7450D
:1052B0001315150013551500EFD087658320C10025
:1052C0000324810083244100032901001355F501C3
:1052D0001301010167800000130101FB2326110463
:1052E000232481042322910423202105232E31032A
:1052F000232C4103232A510323286103232671030E
:1053000023248103232291032320A103232EB1010F
:105310002326E1002324A1002320F1006358E00AA2
:10532000938A05006354B00A93972500130406007E
:10533000131B2600138A06002322F100130C000021
:10534000832981008324010013090000635E800A21
:10535000930B0A00938C0900930D0000130D0000BD
:1053600083A50B0003A50C00938D1D00938C4C00AE
:10537000EFD017189305050013050D00EFD0477106
:10538000938B4B00130D0500E31CB4FDB389690139
:1053900003A5040093050D0013091900EFD0476F12
:1053A00023A0A40093844400E3922AFB83270100F6
:1053B00003274100130C1C00330A6A01B387E7007E
:1053C0002320F1008327C100E39C87F78320C104D9
:1053D0000324810483244104032901048329C10394
:1053E000032A8103832A4103032B0103832BC10278
:1053F000032C8102832C4102032D0102832DC10164
:105400001301010567800000130D00006FF05FF8C5
:10541000130101FA23264105232E8104232C910434
:10542000232A210523283105232451052322610540
:1054300023207105232E8103232C9103232AA1030A
:105440002328B1032322F102232CB100232EE100F3
:1054500023201103032A01066350F018930A060063
:1054600013830600130E0800930400006352E0202B
:10547000930B1000B39B9B00B7070080938BFBFF3F
:1054800093C7F7FF2324F102B3F7FB002326F100B3
:105490008327010213DB1B406350F0141394270091
:1054A0008327C101032781013789000093C7F7FFD4
:1054B00093D7F741370D00C093020500B30CC50127
:1054C0003304870023280100232A01002326F10248
:1054D000130D1D00B789FFFF130CF9FF832701018E
:1054E0000327C10203258101139617008327C101F9
:1054F00013080000B3F3E700832781063386C70053
:10550000832605006354C00333870A019387020092
:105510008385070083080700938717001307170088
:10552000B3851503B386B600E394FCFEB39676000C
:10553000B3856602B39E6602630CD30C130F0D0095
:10554000930FF0FF63CA0E0EB7070040B387F50054
:10555000B3B5B700B38ED501939E1E0093D7F70164
:10556000B3E7FE0093D8F70133F77701B3886801FA
:105570008316060033A7E800B3D79740B307F700B8
:10558000B3874701B387F60063D43701B787FFFFBE
:1055900063C4270193070C002310F6001305450090
:1055A000130626003308C801E31CA4F403270101F5
:1055B0008326010283274101B382C2013307D7004A
:1055C0002328E1000327410293871700232AF100D3
:1055D000B38CCC01E314F7F00324C10583248105C7
:1055E0000329410583290105032AC104832A810473
:1055F000032B4104832B0104032CC103832C81035F
:10560000032D4103832D0103130101066780000070
:10561000370F0040930F000063D60E00130F0D00EC
:10562000930FF0FFB70D00800327C10093080B0014
:1056300093C7F6FFE38EB6F33307BF00B337E70136
:1056400083258102B386DF01B386D70093D7F64165
:10565000B3F7B7003387E700B337F700B387D70056
:10566000939717001357F701B3E7E7006FF09FEF29
:10567000B304E040938704FE930B0000E3DE07DEF3
:105680006FF01FDF130101FB232E4103232681044A
:10569000232491042322210523203105232C5103A7
:1056A000232A6103232871032326810323249103E2
:1056B0002322A1032320B103232AF1002328B100D0
:1056C0002324E10023261101032A0105635AF01661
:1056D000930A060013830600130E080093040000CB
:1056E000635CE01E930B1000B39B9B00B707008028
:1056F0000327C10093C7F7FF938BFBFF232CF10017
:1057000013DB1B40B3FDFB00635CE01283278100C9
:1057100083268105B70C00C093C7F7FF93D7F741E5
:1057200093030500B38FE600330CC501232001006D
:1057300023220100232EF100938C1C00930900F812
:105740001309F007832781000327C1010325010105
:105750001308000033F4E7008327810503270100C5
:105760003386E700832705006354C003B3860A012C
:1057700013870300830507008388060013071700BB
:1057800093861600B3851503B387B700E314ECFEC8
:10579000B3978700B3856702B39E6702630EF30C6D
:1057A000138F0C009302F0FF63CC0E0EB70700407E
:1057B0003387F500B337B700B387D7019397170046
:1057C0001357F70133E7E7009358F701B3767701F2
:1057D000B388680183070600B3A6D8003357974003
:1057E0003387E60033074701B387E70063D4370107
:1057F000930700F86354F9009307F0072300F600BD
:1058000013061600130545003308C801E39CCFF4C6
:105810000327C1008326010083274100B38FEF00D7
:10582000B386E60003274101938717002322F10086
:105830002320D100B383C301330CCC01E314F7F070
:105840000324C1048324810403294104832901041E
:10585000032AC103832A8103032B4103832B010302
:10586000032CC102832C8102032D4102832D0102EE
:105870001301010567800000370F0040930200000C
:1058800063D60E00138F0C009302F0FF370D0080DB
:1058900093080B0093860D0013C7F7FFE38CA7F363
:1058A000B306BF0033B7E601B387D201B305F700F3
:1058B0000327810193D7F541B3F7E700B386D700FB
:1058C00033B7F6003307B7001317170093D6F60166
:1058D0003367D7006FF05FEFB304E040938704FEB7
:1058E000930B0000E3D407E06FF0DFDF130101F753
:1058F000232611082324810823229108232021092B
:10590000232E3107232C4107232A5107232861071F
:105910002326710723248107232291072320A1072F
:10592000232EB105232201032328B102232CC10217
:105930002324F104232C11016356005D9307C70053
:10594000232AF10213840600930A0000E354F006B0
:10595000130710003317570103268101B7A7094029
:10596000370900801307F7FF83A7C7491349F9FFD9
:10597000935517402322E10033772701232AE100C2
:105980001357F6412326F1042320E1048327410322
:1059900003270109B7A6094083A6464993C7F7FF25
:1059A0002328E1000327010393D7F7412324D102E1
:1059B0002322F10493161600B70700F03307D7002F
:1059C000B70900C0938717002326D1022324A10022
:1059D000378B00002320B100330AD500232EE102CB
:1059E000232E010093891900B70400802326F100BB
:1059F000832781016354F07683268100930C000095
:105A0000130C000013050000930700000397060025
:105A1000938626003306E702B305E5001357F741E6
:105A200033B8A5003387E700B307E8001385050006
:105A30003387CC001356F641B33597013306CC00BB
:105A4000930C0700338CC500E312DAFC832B810131
:105A500083260104135765019395A70013860B0055
:105A6000B365B7001315A500EFD0476D37071000D9
:105A7000B3477703930B05001307F7FF93D6F7415E
:105A8000B3869603330CFC0233869703338C86016E
:105A9000B3B79703B305A502330CFC00B3977B03A0
:105AA000B305B6403336B600330CFC403306CC4069
:105AB0001355F6413377E500B306B70033B7E60078
:105AC0003306C7001316C60093D54601B365B6006A
:105AD0006344B000832581049307100063D6B75E4A
